:03000000020A6D84
:0C0A6D00787FE4F6D8FD75816E020AB4B3
:10053000456E7465726564204D6F746F7220636FD1
:100540006D6D616E64203A2000696E20756E6B6E71
:100550006F776E207374617465200D006973206974
:100560006E204F4646207374617465200D006973D8
:100570002072756E6E696E6720696E20636C6F63A2
:100580006B776973650D000D4D4F544F5220434FEB
:100590004D4D414E44204D454E550D00746F207316
:1005A000746F702072756E6E696E67203A200074E9
:1005B0006F2072756E20636C6F636B776973652053
:1005C0003A20000D494E5055543A204D6F746F72C9
:1005D00020636F6D6D616E642C20456E74657220B2
:1005E0003A20004552523A20496E76616C69642087
:1005F0004D6F746F72204944003A20496E76616CE9
:100600006964206D6F746F7220636F6D6D616E64CD
:10061000004F464600696E20756E6B6E6F776E20D8
:1006200073746174650D00747269676765726564DF
:1006300020004552523A204D6F746F7220496E6906
:1006400074200D004552523A205374725F46696C13
:100650006C0D004552523A205374725F436D700D19
:10066000004552523A205374725F4A6F696E2050AF
:1006700074720D004552523A205374725F4A6F698A
:100680006E206C656674205374720D004552523AA8
:10069000205374725F4A6F696E20726967687420B4
:1006A0005374720D004552523A205374725F436185
:1006B00074205074720D004552523A205374725F88
:1006C0004361742063686172730D00616C726561CF
:0706D000647920696E20002F
:100C750009084D4F544F522031200004204F46465D
:0A0C85000003244F4E000227000078
:1006D700C293120C90E4FDFF120AF97547007548A2
:1006E70000754908754A00754B00754C207B007AE8
:1006F70000792912081B7547007548007549087568
:100707004A00754B00754C247B007A007937120834
:100717001BE4FDFF0207FEE5282401FFE43527FE61
:10072700C3EF940FEE648094804003D29322120C9F
:10073700AE8F43E54324F3602A24056003020804CF
:10074700D3E5289400E5276480948040CAAF43121C
:100757000CA674112528F8E4F6E528152870B815B5
:100767002780B4AF43120CA674112528F8E4F67B52
:10077700FF7A057930120C557B007A007911120C3B
:10078700557F0D120CA6754700754800754911E491
:10079700F54A754B08FB7A0079081209BD8F42EFBD
:1007A700600875420A75430180497547007548001E
:1007B700754911754A08754B077B007A007937121E
:1007C70009BD8F42EF70057542018024754700759A
:1007D7004800754911754A08754B077B007A0079FF
:1007E700291209BD8F42EF7004F542800375420B51
:1007F700E4F543AD42AF43120C3202071EAF43127A
:100807000CA674112528F8A6430528E528700205CB
:040817002702071E8F
:020003008F5814
:10000500E4F55CF55DF527F528FB7A007911F563D4
:100015007D0F120B7C8E5C8F5DEF4E60057E007F41
:100025000122E55870137B007A007908120C55E41B
:10003500F55CF55D85585E8009755C00755D0AE4C3
:10004500F55EC3E55E94017480948040030200EA86
:100055007B007A007908120C55E55E75F002A42440
:1000650035F9E4FAFBF559F55A895B120321AEF02F
:100075007803CEC313CE13D8F95407601514601254
:100085001470527BFF7A057949120C55755C007521
:100095005D09AB59AA5AA95B120321AEF07803CECC
:1000A500C313CE13D8F9540770087BFF7A05795C22
:1000B5008020AB59AA5AA95B120321AEF07803CE72
:1000C500C313CE13D8F95407640170097BFF7A0571
:1000D500796E120C55C3E5589401748094804005DF
:1000E500055E020047C3E55894017480948050056D
:1000F50085585E8003E4F55E7BFF7A057987120CEF
:1001050055C3E55E94017480948040030201B5E512
:100115005E75F002A42435F9E4FAFBF559F55A8920
:100125005B120321AEF07803CEC313CE13D8F95476
:100135000724FD500280697B007A007908120C556E
:10014500AB59AA5AA95B120321AEF07803CEC313AB
:10015500CE13D8F9540760177BFF7A05799C120CEA
:10016500557B007A007929120C557F0D120CA6AB30
:1001750059AA5AA95B120321AEF07803CEC313CE58
:1001850013D8F95407640160177BFF7A0579AF121C
:100195000C557B007A007937120C557F0D120CA691
:1001A500C3E5589401748094804005055E020106FC
:0D01B5007BFF7A0579C3120C55AE5CAF5D7F
:0101C200221A
:04037C008F448D45D8
:1003800078497C007D007BFF7A0679CB7E007F0C6C
:10039000120293854455E4F556F557E544700B7BFE
:1003A000007A007908120C5580127BFF7A0579E3F8
:1003B000120C5575550175560075570AE557455687
:1003C0007021E545601D14601A80007B007A007979
:1003D00008120C557BFF7A0579F9120C55755600F9
:1003E00075570BE55745566003020478E54475F0F0
:1003F00002A42435F9E4FAFBF546F54789481203CF
:1004000021AEF07803CEC313CE13D8F9540714608D
:100410002104703DE54570607B007A007949120C3B
:10042000557BFF7A067911120C55755600755705E4
:100430008046E5451470417B007A007949120C55DD
:100440007B007A007924120C557556007557078089
:1004500027AB46AA47A94812032154C74410FFE519
:10046000F08FF012034C7BFF7A067915120C557B46
:10047000007A007908120C55E557455660030205CD
:10048000177BFF7A067927120C55E5451460460460
:100490006003020517AB46AA47A948120321FDAC29
:1004A000F0AE047803CEC313CE13D8F954076067B7
:1004B000C2A2C2A0C2A1C292C291ED54C7FFEC8FEA
:1004C000F012034C7BFF7A067911120C5575560019
:1004D0007557068042AB46AA47A948120321FDACD6
:1004E000F0AE047803CEC313CE13D8F954076401D9
:1004F0006025D2A2D2A0C2A1D292D291ED54C7441B
:1005000008FFEC8FF012034C7B007A007924120C68
:10051000557556007557087F0D120CA6AF55120081
:0F05200003EF4E6006755600755701AE56AF5784
:01052F0022A9
:100C3200E4FBFA12037CAA06AB07EA700FEB24FB73
:100C420024FC500424097004C2938002D293AE02A1
:020C5200AF03EE
:010C5400227D
:100AF9008F448D45C3EF940174809480500BC3E5F6
:100B090045940374809480400E7BFF7A06793212F3
:100B19000C557E007F0422E5445407FFE54425E097
:100B29002435F8C000E6FC08E654F8FDECFEED4F6C
:100B3900D000A60608F67E00E54554077803C333BE
:100B4900CE33CED8F9FFE54425E02435F8C000E6D8
:100B5900FC08E654C7FDEC4EFEED4FD000A6060892
:100B6900F6E544700AC2A0C2A1C2A2C292C291E42F
:030B7900FEFF225A
:080C0C008F4D8E4C8D4B8C4A7C
:100C1400E4F583F582AF82AE83E4FCFDAB4DAA4CD0
:0D0C2400A94BA84AD312036B4003A380E83C
:010C310022A0
:080BD0008F478E468D458C44D1
:100BD800E4F548F549F548F549AE48AF49E4FCFD68
:100BE800AB47AA46A945A844D312036B40157FF426
:100BF8007E017D007C00120C0C0549E54970DA0580
:030C08004880D64B
:010C0B0022C6
:080B7C008B5F8A6089618D62C4
:100B8400E94A4B600BD3E562940F74809480400E65
:100B94007BFF7A067944120C557E007F0322E4FF22
:100BA400EFC395625013AB5FAA60A9618F8275830E
:100BB40000E5631202FF0F80E7AB5FAA60A9618FB3
:0B0BC40082758300E41202FFE4FEFFD4
:010BCF002203
:0609BD008B448A458946C7
:1009C300E94A4B601BE549454845476013E54A251D
:1009D3004BFFE433FED3EF940FEE64809480400E1C
:1009E3007BFF7A067953120C557E007F1022E4F5C3
:1009F3004CF54DC3E54D954BE54C94005068AB4722
:100A0300E549254DF9E548354CFA7E00E9254AF9D3
:100A1300EE3AFA1202B9FFAB44E546254DF9E54536
:100A2300354CFAE54AFD7C0029F9EC3AFA1202B991
:100A33006F600FE54D2DCFEC354CCF2401CF340043
:100A4300FE22AB47E549254DF9E548354CFAE92D3A
:100A5300F9EA3CFA1202B97003FEFF22054DE54D97
:090A63007091054C808DE4FEFF4A
:010A6C002267
:06081B008B448A4589466A
:10082100E94A4B6010E549454845476008E54C45B4
:100831004B454A700E7BFF7A067961120C557E009A
:100841007F0222E4F54DAB47AA48A949854D82753F
:1008510083001202D2603DE54D2401FFE433FEC363
:10086100EF940FEE6480948040087BFF7A067974E0
:10087100804FAB47AA48A949854D82758300120272
:10088100D2AB44AA45A946854D827583001202FF69
:10089100054D80B2E4F54EAB4AAA4BA94C854E8278
:1008A1007583001202D26045E54D2401FFE433FE59
:1008B100C3EF940FEE64809480400E7BFF7A06793B
:1008C1008C120C557E007F0422AB4AAA4BA94C85A1
:1008D1004E827583001202D2AB44AA45A946854DCA
:1008E100827583001202FF054E054D80AAAB44AA12
:1008F10045A946854D82758300E41202FFE4FEFF9F
:0109010022D3
:060902008B678A68896919
:10090800E4F56DE94A4B6008E56C456B456A700E85
:100918007BFF7A0679A5120C557E007F0222AB6711
:10092800AA68A969856D827583001202D26019E5EB
:100938006D2401FFE433FEC3EF940FEE64809480CE
:1009480040028034056D80D6E4F56EAB6AAA6BA9C7
:100958006C856E827583001202D26045E56D2401B4
:10096800FFE433FEC3EF940FEE64809480400E7B67
:10097800FF7A0679B7120C557E007F0422AB6AAA6B
:100988006BA96C856E827583001202D2AB67AA6868
:10099800A969856D827583001202FF056E056D8059
:1009A800AAAB67AA68A969856D82758300E41202FB
:0409B800FFE4FEFF5B
:0109BC002218
:100C9000759850758920758DFDD28E7F0A7E007DF6
:060CA000007C00020BD0F5
:080CA6008F993099FDC29922DB
:060C55008B648A658966CC
:100C5B00E4FEAB64AA65A9668E827583001202D28C
:090C6B00FF6006120CA60E80E9E0
:010C7400225D
:070CAE003098FDC298AF99D8
:010CB500221C
:100A79000206D7E493A3F8E493A34003F68001F2B6
:100A890008DFF48029E493A3F85407240CC8C3337E
:100A9900C4540F4420C8834004F456800146F6DF4D
:100AA900E4800B0102040810204080900C75E47E5C
:100AB900019360BCA3FF543F30E509541FFEE49342
:100AC900A360010ECF54C025E060A840B8E493A309
:100AD900FAE493A3F8E493A3C8C582C8CAC583CA34
:100AE900F0A3C8C582C8CAC583CADFE9DEE780BEEC
:010C8F000064
:1001C300E709F608DFFA8046E709F208DFFA803E1E
:1001D30088828C83E709F0A3DFFA8032E309F6080B
:1001E300DFFA8078E309F208DFFA807088828C8373
:1001F300E309F0A3DFFA806489828A83E0A3F60827
:10020300DFFA805889828A83E0A3F208DFFA804C00
:1002130080D280FA80C680D4806980F280338010D7
:1002230080A680EA809A80A880DA80E280CA803340
:1002330089828A83ECFAE493A3C8C582C8CCC583B8
:10024300CCF0A3C8C582C8CCC583CCDFE9DEE78088
:100253000D89828A83E493A3F608DFF9ECFAA9F007
:10026300EDFB2289828A83ECFAE0A3C8C582C8CC5D
:10027300C583CCF0A3C8C582C8CCC583CCDFEADE76
:10028300E880DB89828A83E493A3F208DFF980CCD8
:1002930088F0EF60010E4E60C388F0ED2402B404D1
:1002A3000050B9F582EB2402B4040050AF23234578
:0602B30082239002137388
:1002B900BB010689828A83E0225002E722BBFE0243
:0902C900E32289828A83E4932276
:1002D200BB010CE58229F582E5833AF583E02250E1
:1002E20006E92582F8E622BBFE06E92582F8E2222B
:0D02F200E58229F582E5833AF583E4932245
:1002FF00F8BB010DE58229F582E5833AF583E8F035
:10030F00225006E92582C8F622BBFE05E92582C8E0
:02031F00F222C8
:10032100BB010A89828A83E0F5F0A3E022500687A7
:10033100F009E71922BBFE07E3F5F009E319228969
:0B034100828A83E493F5F0740193229C
:10034C00BB010A89828A83F0E5F0A3F0225006F7FC
:0F035C0009A7F01922BBFE06F3E5F009F31922F9
:10036B00EB9FF5F0EA9E42F0E99D42F0E89C45F0E8
:01037B00225F
:00000001FF
