:0300000002107F6C
:0C107F00787FE4F6D8FD75816C0210C685
:100AE7000D494E5055543A204D6F746F7220436F25
:100AF7006D6D6D616E64202D20454E544552203A30
:100B070020000D204552523A20496E7075742063BB
:100B170068617273203E204D4158204368617273AB
:100B2700000D205245513A2050726573732045528B
:100B3700524F52205245534554205357200D0045DC
:100B47006E7465726564204D6F746F7220636F6D8C
:100B57006D616E64203A200020000D204552523A04
:100B67002044756520746F204D4F544F52200D005F
:100B77000D204552523A2044756520746F204D4F21
:100B8700544F52204944200D002564000D20455242
:100B9700523A2044756520746F204D4F544F5220B0
:100BA7004944206973206E6F74206E756D200D00A7
:100BB7000D204552523A2044756520746F204D4FE1
:100BC700544F5220636F6D6D616E64200D000D20D0
:100BD7004552523A2044756520746F2065786365E5
:100BE70065647320746F6B656E20636F756E742018
:100BF7000D000D204D4F544F5228532920434F4D80
:100C07004D414E44205354415445200D003D3D3D38
:100C17003D3D3D3D3D3D3D3D3D3D3D3D3D3D3D3DFD
:100C27003D3D3D3D3D3D3D0D0020257520000D20FE
:100C370044756520746F20456D657267656E6379CD
:100C4700202D204D6F746F7273204F4646000D2084
:100C57004D4F544F522853292043555252454E5415
:100C6700205354415445200D00696E20756E6B6EFC
:100C77006F776E2073746174650D00697320696EF8
:100C8700204F46462073746174650D0069732072A6
:100C9700756E6E696E6720696E20636C6F636B7724
:100CA7006973650D003A20496E76616C6964206D41
:100CB7006F746F7220636F6D6D616E64007472691B
:100CC70067676572656420004552523A204D6F741C
:100CD7006F7220496E6974200D004552523A2053B5
:100CE70074725F46696C6C0D00616C726561647942
:020CF7002000DB
:1014DF0006644D4F544F520004564F464600035A70
:0F14EF004F4E00074753544154555300015D00C1
:10041400E4752AC8F529F528F527C293D2B4C29306
:10042400D2AF120006121569435F02535FFEE4FD6A
:10043400FFFE120F20E4FD7F01FE120F200206E4EE
:10044400AE5EE55F7803CEC313CE13D8F9541F1400
:1004540060731470030206EF14700302073D240353
:1004640070DEE51D20E22730E4D6435F01E55F54EA
:1004740007855E5E4410F55FD2937BFF7A0B7909A2
:100484001214FF7BFF7A0B79281214FF80B27532A5
:100494000075330075345D7B007A00794E12145870
:1004A4007BFF7A0B79461214FFAB4EAA4FA9501268
:1004B40014FF7F0D121534E55F5407855E5E440812
:1004C400F55F020444752601E4F5257532FF7533A2
:1004D4000B75345FAB4EAA4FA95002060FE52445B5
:1004E400234522700302061BE525640B70030206F4
:1004F4001BD3E526940474809480400302061BE514
:100504002624FE60301470030205A0240260030256
:1005140005F478647C007D00AB22AA23A92412038D
:1005240069EF7005052602060075250B7BFF7A0B23
:1005340079610205FDAB22AA23A924120FD18E2BC7
:100544008F2CD3E52C9403E52B9400500AE52C94CE
:1005540000E52B9400500C75250B7BFF7A0B797703
:100564000205FD7536FF75370B753890852B398577
:100574002C3A7B007A0079511207E7A824AC23AD0A
:10058400227B007A007951120369EF7004052680FA
:100594006B75250B7BFF7A0B7993805D785A7C0011
:1005A4007D00AB22AA23A924120369EF70057525E7
:1005B40001803978567C007D00AB22AA23A924123D
:1005C4000369EF7004F525802378477C007D00AB38
:1005D40022AA23A924120369EF7005752502800C51
:1005E40075250B7BFF7A0B79B71214FF0526800C57
:1005F40075250B7BFF7A0B79D51214FF7532FF75C5
:10060400330B75345F7B007A00790012110B8B2257
:100614008A2389240204E17F04121362E526640418
:10062400700EE524452345227006E525640B7015FC
:1006340075250B752B00752C02AF2CAE2B120E6793
:10064400D2930206E4E52C152C7002152BE52564E3
:1006540002700AAF2CAE2B120E670206E4E52B7073
:1006640010E52C146003047008852B2D852C2E8036
:1006740005E4F52DF52E7BFF7A0B79F91214FF7B37
:10068400FF7A0C79141214FFC3E52E9402E52D941D
:1006940000504D7B007A0079641214FF7536FF75A3
:1006A400370C753830E52E2401F53AE4352DF5394B
:1006B4007B007A0079511207E77B007A00795112A6
:1006C40014FFAD25AF2EAE2D120CF9C3E52C940208
:1006D400E52B9400400A052EE52E70AC052D80A86C
:1006E4007BFF7A0A79E71214FF8048E55F20E00374
:1006F400020444E4752AC8F529F528F52730B40323
:100704000204447F64FEFDFC12141C20B4127827FA
:1007140074FF12017EE4FBFAF9F8C312016B70EB6B
:100724007F04121362C2937BFF7A0A79E71214FFE3
:10073400535FFE535F07020444E55F20E2030204B3
:1007440044535FFDE4F52DF52EAF2EAE2D1213E0CC
:10075400052EE52E7002052DC39402E52D9400406C
:10076400E87F04121362C293535FFB7BFF7A0C7918
:10077400351214FF7BFF7A0A79E71214FF535F07DF
:07078400D2A8D28802044450
:05156900D2A8D2882287
:0300030002151FC4
:10151F00C0E0C2A8435F04E55F5407855E5E4418D0
:05152F00F55FD0E03281
:040E67008E2F8F300B
:100E6B00E52F7010E530146003047008852F318571
:100E7B0030328005E4F531F5327BFF7A0C7955126F
:100E8B0014FF7BFF7A0C79141214FFC3E532940222
:100E9B00E5319400507C7B007A0079641214FF7565
:100EAB0036FF75370C753830E5322401F53AE435E9
:100EBB0031F5397B007A0079511207E77B007A0014
:100ECB0079511214FFE53225E02460F8E6FE08E6BE
:100EDB007803CEC313CE13D8F95407600E146013E6
:100EEB001470197BFF7A0C7970800E7BFF7A0C796A
:100EFB008280067BFF7A0C79931214FFC3E5309442
:100F0B0002E52F9400400B0532E5327002053102E9
:040F1B000E967F00AF
:010F1F0022AF
:060CF9008E2F8F308D31BB
:100CFF0078327C007D007BFF7A0C79F07E007F09D3
:100D0F001200F6E4F53BF53CE52F700EE53014606C
:100D1F0003047006AE2FAF308003E4FEFFE53C45C1
:100D2F003B7018E531601414601180007BFF7A0C62
:100D3F0079AC1214FF753B00753C0BE53C453B60ED
:100D4F0003020DD2E53025E02460F8E6FE08E678D0
:100D5F0003CEC313CE13D8F9540714602104703D8A
:100D6F00E531705F7B007A0079321214FF7B007AD5
:100D7F000079561214FF753B00753C058045E5312F
:100D8F001470407B007A0079321214FF7B007A00D6
:100D9F00795A1214FF753B00753C078026E5302504
:100DAF00E02460F8C000E6FE08E654C74410D00007
:100DBF00A60608F67BFF7A0C79701214FF753B00BC
:100DCF00753C09E53C453B70717BFF7A0C79C41289
:100DDF0014FFE531146033047060E53025E02460C2
:100DEF00F8E6FE08E67803CEC313CE13D8F95407FE
:100DFF006048AF30AE2F1213E07B007A00795612A5
:100E0F0014FF753B00753C068030E53025E024600B
:100E1F00F8E6FE08E67803CEC313CE13D8F95407CD
:100E2F0064016016AF30AE2F1213A27B007A0079E7
:100E3F005A1214FF753B00753C087F0D121534E5EF
:100E4F003B7010E53C24FB24FC500424097004C2C1
:070E5F00938002D293AF3C27
:010E66002269
:100F20008E2F8F308D31C3E5309402E52F94005021
:100F30000BC3E531940374809480400E7BFF7A0CE0
:100F400079CF1214FFD2937F0422E52F701EE53073
:100F500014600F047016C2A0C2A1C2A2C292C291B4
:100F6000800AC2A4C2A5C2A3C2A7C2A67E00E53160
:100F700054037806C333CE33CED8F9FFE53025E0ED
:100F80002460F8C000E6FC08E6543FFDEC4EFEEDA0
:100F90004FD000A60608F6E5305407FFE53025E0FF
:100FA0002460F8C000E6FC08E654F8FDECFEED4FC6
:100FB000D000A60608F6E53114600C047010AF30BE
:100FC000AE2F1213E08007AF30AE2F1213A27F00B6
:010FD00022FE
:1013E000EE701FEF14600F047018C2A0C2A1C2A259
:1013F000D292C291800FC2A4C2A5C2A3D2A7C2A694
:1014000080037F0A22EF25E02460F8C000E6FE0892
:0C141000E654C7D000A60608F67F0022B4
:1013A200EE701FEF14600F047018D2A2D2A0C2A177
:1013B200C292D291800FD2A3D2A4C2A5C2A7D2A6B2
:1013C20080037F0A22EF25E02460F8C000E6FE08D1
:0E13D200E654C74408D000A60608F67F0022A5
:0814B9008F388E378D368C351B
:1014C100E4F583F582AF82AE83E4FCFDAB38AA3745
:0D14D100A936A835D312016B4003A380E8B3
:0114DE0022EB
:08141C008F328E318D308C2FD0
:10142400E4F533F534F533F534AE33AF34E4FCFD91
:10143400AB32AA31A930A82FD312016B40157FF427
:101444007E017D007C001214B90534E53470DA05A0
:031454003380D60C
:011457002272
:0812C0008B308A3189328D3335
:1012C800E94A4B600BD3E533941274809480400E46
:1012D8007BFF7A0C79E11214FF7E007F0322E4FF82
:1012E800EFC395335013AB30AA31A9328F8275837F
:1012F80000E5341201490F80E7AB30AA31A9328FDB
:0B13080082758300E4120149E4FEFF3F
:0113130022B7
:10000600D2AC759850758920758DFDD28E7F0412FD
:0D00160013627F017E007D007C0002141C3F
:101362008F2FE52F14601614601014602F14600480
:101372002404702B431D02431D20431D087B007A69
:10138200007908E4F5347D121212C0E4F51A531DF7
:10139200EFF51B531DFBE52F64047003431D01226F
:10153400E51D30E00D8F99531DFE3099FDC299438E
:031544001D012264
:0614FF008B3D8A3E893F8F
:10150500E4FEAB3DAA3EA93F8E8275830012011C05
:09151500FF60061215340E80E996
:01151E0022AA
:03002300021314B1
:10131400C0E0C0F0C083C082C0D075D000C000C09F
:1013240001C002C003C004C005C006C0073099054F
:10133400C299431D0130980B531DFD85991B121151
:101344008BC298D007D006D005D004D003D002D0E9
:0E13540001D000D0D0D082D083D0F0D0E032D3
:101458008B2F8A308931E94A4B6008E5344533459A
:101468003270057E007F02227B007A007908C00373
:10147800C002C001AB2FAA30A93112019C753200FD
:0A14880075330075341AE4FEFF22EC
:10118B00531DF7E51A2401FFE433FEC3EF9412EE6F
:10119B0064809480505A531DEFE51B24F360222486
:1011AB00057034D3E51A9400748094804045E51D96
:1011BB0030E505AF1B121534AF1A151A74082F80C2
:1011CB0011E51D30E505AF1B121534431D047408E2
:1011DB00251AF8E4F6801CE51D30E505AF1B12154A
:1011EB0034531DFBAF1A051A74082FF8A61B800386
:0711FB00431D10431D0222F9
:10108B00020414E493A3F8E493A34003F68001F263
:10109B0008DFF48029E493A3F85407240CC8C33366
:1010AB00C4540F4420C8834004F456800146F6DF35
:1010BB00E4800B01020408102040809014DFE47ED2
:1010CB00019360BCA3FF543F30E509541FFEE4932A
:1010DB00A360010ECF54C025E060A840B8E493A3F1
:1010EB00FAE493A3F8E493A3C8C582C8CAC583CA1C
:1010FB00F0A3C8C582C8CAC583CADFE9DEE780BED4
:0114FE0000ED
:10002600E709F608DFFA8046E709F208DFFA803EBC
:1000360088828C83E709F0A3DFFA8032E309F608A9
:10004600DFFA8078E309F208DFFA807088828C8311
:10005600E309F0A3DFFA806489828A83E0A3F608C5
:10006600DFFA805889828A83E0A3F208DFFA804C9F
:1000760080D280FA80C680D4806980F28033801076
:1000860080A680EA809A80A880DA80E280CA8033DF
:1000960089828A83ECFAE493A3C8C582C8CCC58357
:1000A600CCF0A3C8C582C8CCC583CCDFE9DEE78027
:1000B6000D89828A83E493A3F608DFF9ECFAA9F0A6
:1000C600EDFB2289828A83ECFAE0A3C8C582C8CCFC
:1000D600C583CCF0A3C8C582C8CCC583CCDFEADE15
:1000E600E880DB89828A83E493A3F208DFF980CC77
:1000F60088F0EF60010E4E60C388F0ED2402B40470
:100106000050B9F582EB2402B4040050AF23234516
:06011600822390007673C5
:10011C00BB010CE58229F582E5833AF583E0225098
:10012C0006E92582F8E622BBFE06E92582F8E222E2
:0D013C00E58229F582E5833AF583E49322FC
:10014900F8BB010DE58229F582E5833AF583E8F0EC
:10015900225006E92582C8F622BBFE05E92582C898
:02016900F22280
:10016B00EB9FF5F0EA9E42F0E99D42F0E89C45F0EA
:01017B002261
:10017C007401FF3395E0FEFDFC080808E62FFFF63E
:10018C0018E63EFEF618E63DFDF618E63CFCF622B7
:10019C00BB011A89828A83D0F0D0E0F8D0E0F9D084
:1001AC00E0FAD0E0FBE8C0E0C0F00203DC5016E956
:1001BC00F8D083D082D0E0F9D0E0FAD0E0FBC08256
:1001CC00C0830203D3BBFE16E9F8D083D082D0E003
:0F01DC00F9D0E0FAD0E0FBC082C0830203E52235
:10078B00E5422436F8E60542227833300702783604
:10079B00E475F0011203C30203862000EB7F2ED217
:1007AB00008018EF540F2490D43440D4FF30040B46
:1007BB00EF24BFB41A0050032461FFE54360021518
:1007CB00430546E5467002054530070D7833E47561
:1007DB00F0011203C3EF02039F0214927403D207BA
:1007EB008003E4C207F5428B338A348935E4F54341
:1007FB00F545F546E54360077F201207C680F57582
:10080B0044FFC201C200C202C203C205C206C20833
:10081B00120794FF700D3007057F001207D7AF4604
:10082B00AE4522B4255FC2D5C204120794FF24D073
:10083B00B40A00501A75F00A784330D50508B6FF94
:10084B000106C6A426F620D5047002D20380D92453
:10085B00CFB41A00EF5004C2E5D2040209D7D2017B
:10086B0080C6D20080C0D20280BCD2D580BAD2055D
:10087B0080B47F201207C62002077401B5430040E5
:10088B00F112078BFF1207C60207FFD208D20680B0
:10089B009512078BFB12078BFA12078BF94A4B70D9
:1008AB000679A87A0A7BFF20022EE543602A7E0098
:1008BB008E8275830012011C60060EEE654470F08B
:1008CB00C2D5EBC0E0EAC0E0E9C0E0EE120A1ED0F0
:1008DB00E0F9D0E0FAD0E0FB120386FF60AAEBC090
:1008EB00E0EAC0E0E9C0E01207C6D0E02401F9D08D
:1008FB00E03400FAD0E0FBE5440460DCD544D98059
:10090B00877BFF7A0A791AD202809C791080027950
:10091B0008C206C2088008D2D5790A8004790AC2B7
:10092B00D5E544047002F544E4FAFDFEFF12078B93
:10093B00FC7B0820011312078BFD7B1030000A1281
:10094B00078BFE12078BFF7B20EC3382D592D550A1
:10095B0013C3E43000069FFFE49EFEE42001039DD9
:10096B00FDE49CFCE4CBF8C201EC700CCFCECDCCFB
:10097B00E824F8F870F38017C3EF33FFEE33FEED86
:10098B0033FDEC33FCEB33FB994002FB0FD8E9EB67
:10099B00300105F8D0E0C448B201C0E00AEC4D4E7E
:1009AB004F78207B0070C2EAB5440040BCC0E01217
:1009BB000A20D0F0D0E0200104C4C0E0C4B201C0D2
:1009CB00F01207AFD0F0D5F0EB0207FF1203EE08E1
:1009DB009C53091658086D4C086942091A4F092295
:0F09EB0044092249088243092855090C46090C82
:1009FA0045090C470AC85008712D08752E08982B0E
:100A0A000879230896200AB12A083148000008907C
:100A1A003F3F3F00790AA2D5200314300509B910D7
:100A2A00020404B9080104A2D520060250010420D8
:100A3A0002689202B543005034C0E07F20300319A7
:100A4A007F30A20272067205500F120A77C202C2E2
:100A5A0006C205C2087F30800F300503E9C0E012E4
:100A6A0007C6300503D0E0F9D0E0B543CC3005170E
:100A7A007F30B9100C1207C67F583004077F788080
:100A8A0003B908031207C63002057F2D0207C67F85
:100A9A00202008F87F2B2006F322920280CF286EAE
:100AAA00756C6C2900D20112078B3001F8C20178EB
:100ABA004330D50108F60208312D50434958120730
:100ACA008B2403B405004001E4900AC3931207B7CC
:0D0ADA00743A1207B7D203754304020916DF
:1001EB00E3F5F009E208B5F06D606B80F3E3F5F031
:1001FB0009E608B5F060605E80F387F009E608B5A4
:10020B00F054605280F487F009E208B5F04860467C
:10021B0080F488828C8387F009E0A3B5F0386036D0
:10022B0080F488828C8387F009E493A3B5F0276070
:10023B002580F388828C83E3F5F009E0A3B5F016F3
:10024B00601480F388828C83E3F5F009E493A3B503
:10025B00F004600280F2020316808580E7808E80B6
:10026B00D2803C8015806C807E809B80B5808B809B
:10027B00A1804F8070803A02032289828A83ECFA34
:10028B00E493F5F0A3C8C582C8CCC583CCE493A393
:10029B00C8C582C8CCC583CCB5F070606E80E189CF
:1002AB00828A83E493F5F0A3E208B5F05E605C808C
:1002BB00F289828A83E0F5F0A3E608B5F04D604B36
:1002CB0080F389828A83E0F5F0A3E208B5F03C6005
:1002DB003A80F389828A83E493F5F0A3E608B5F0BC
:1002EB002A602880F2805389828A83ECFAE493F5A2
:1002FB00F0A3C8C582C8CCC583CCE0A3C8C582C84F
:10030B00CCC583CCB5F004600280E27FFFB5F00270
:10031B000F2240027F012289828A83ECFAE0F5F0FA
:10032B00A3C8C582C8CCC583CCE0A3C8C582C8CC42
:10033B00C583CCB5F0D560D380E389828A83ECFA90
:10034B00E0F5F0A3C8C582C8CCC583CCE493A3C8A1
:10035B00C582C8CCC583CCB5F0B160AF80E288F064
:10036B00ED2402B4040050A3F582EB2402B4040084
:0B037B005099232345822390026473F5
:10110B008B2F8A308931E94A4B7009856A2F856BA1
:10111B0030856C31E5314530452F7002802C85329E
:10112B003885333985343AAB2FAA30A931121202E4
:10113B00EF2531F531EE3530F530AB2FFAA9311201
:10114B000386700AF56AF56BF56CFBFAF9228532AA
:10115B003885333985343AAB2FAA30A93112126353
:10116B008B6A8A6B896CEA494B600EE412039F040D
:10117B00256CF56CE4356BF56BAB2FAA30A93122DE
:100FD1008B2F8A308931AB2FAA30A931120386FFBA
:100FE100121547500D74012531F531E43530F530D6
:100FF10080E4D200AB2FAA30A931120386FF642B03
:101001006004EFB42D1BAB2F0531E531AA3070021E
:10101100053014F9120386642D6003D38001C39255
:1010210000E4F532F533AB2FAA30A931120386FF64
:1010310012155A5036AB2FAA30A931120386FF334D
:1010410095E0FEEF24D0FBEE34FFFAAE32AF337CF5
:10105100007D0A1203B1EF2BF533EE3AF53274013C
:101061002531F531E43530F53080BB300006AE3244
:0E107100AF338009C3E49533FFE49532FE22CD
:10038600BB010689828A83E0225002E722BBFE0275
:09039600E32289828A83E49322A8
:10039F00BB010689828A83F0225002F722BBFE013D
:0203AF00F32237
:1003B100EF8DF0A4A8F0CF8CF0A428CE8DF0A42E60
:0203C100FE221A
:1003C300FAE6FB0808E6F925F0F618E6CA3AF6223B
:0903D300EBF608EAF608E9F6224F
:0903DC00EBF0A3EAF0A3E9F02222
:0903E500EBF208EAF208E9F22249
:1003EE00D083D082F8E4937012740193700DA3A39E
:1003FE0093F8740193F5828883E4737402936860B2
:06040E00EFA3A3A380DFB1
:10149200EFB40A07740D12149D740A309811A899BA
:1014A200B8130CC2983098FDA899C298B811F630BA
:0714B20099FDC299F5992292
:0F155A00EFC394304007EF943A50028001C32250
:10154700EFC394094005EF940E4003BF2003D380F7
:0315570001C322AB
:101202008B358A368937E4F53BF53CE4FEFFAB3893
:10121200AA39A93A8F828E8312011CFD6013AB3565
:10122200AA36A9371203866D60070FBF00010E8030
:10123200DDAB38AA39A93A8F828E8312011C700263
:10124200801A053CE53C7002053BAB350537E537B6
:1012520070020536F9AA3612038670AFAE3BAF3C78
:011262002269
:101263008B358A36893785383B85393C853A3DABA2
:101273003BAA3CA93D120386FF6019AB35AA36A9E8
:10128300371203866F600D7401253DF53DE4353C4F
:10129300F53C80DBAB3BAA3CA93D1203866007AB60
:1012A30035AA36A93722AB350537E537AA3670029A
:0D12B300053614F912038670ADFBFAF9221E
:00000001FF
